{
  "_format": "hh-sol-artifact-1",
  "contractName": "MasterChef",
  "sourceName": "requiem_contracts/MasterChef.sol",
  "abi": [
    {
      "inputs": [
        {
          "internalType": "contract RequiemToken",
          "name": "_reqt",
          "type": "address"
        },
        {
          "internalType": "contract SyrupBar",
          "name": "_syrup",
          "type": "address"
        },
        {
          "internalType": "address",
          "name": "_devaddr",
          "type": "address"
        },
        {
          "internalType": "uint256",
          "name": "_reqtPerBlock",
          "type": "uint256"
        },
        {
          "internalType": "uint256",
          "name": "_startBlock",
          "type": "uint256"
        }
      ],
      "stateMutability": "nonpayable",
      "type": "constructor"
    },
    {
      "anonymous": false,
      "inputs": [
        {
          "indexed": true,
          "internalType": "address",
          "name": "user",
          "type": "address"
        },
        {
          "indexed": true,
          "internalType": "uint256",
          "name": "pid",
          "type": "uint256"
        },
        {
          "indexed": false,
          "internalType": "uint256",
          "name": "amount",
          "type": "uint256"
        }
      ],
      "name": "Deposit",
      "type": "event"
    },
    {
      "anonymous": false,
      "inputs": [
        {
          "indexed": true,
          "internalType": "address",
          "name": "user",
          "type": "address"
        },
        {
          "indexed": true,
          "internalType": "uint256",
          "name": "pid",
          "type": "uint256"
        },
        {
          "indexed": false,
          "internalType": "uint256",
          "name": "amount",
          "type": "uint256"
        }
      ],
      "name": "EmergencyWithdraw",
      "type": "event"
    },
    {
      "anonymous": false,
      "inputs": [
        {
          "indexed": true,
          "internalType": "address",
          "name": "previousOwner",
          "type": "address"
        },
        {
          "indexed": true,
          "internalType": "address",
          "name": "newOwner",
          "type": "address"
        }
      ],
      "name": "OwnershipTransferred",
      "type": "event"
    },
    {
      "anonymous": false,
      "inputs": [
        {
          "indexed": true,
          "internalType": "address",
          "name": "user",
          "type": "address"
        },
        {
          "indexed": true,
          "internalType": "uint256",
          "name": "pid",
          "type": "uint256"
        },
        {
          "indexed": false,
          "internalType": "uint256",
          "name": "amount",
          "type": "uint256"
        }
      ],
      "name": "Withdraw",
      "type": "event"
    },
    {
      "inputs": [],
      "name": "BONUS_MULTIPLIER",
      "outputs": [
        {
          "internalType": "uint256",
          "name": "",
          "type": "uint256"
        }
      ],
      "stateMutability": "view",
      "type": "function"
    },
    {
      "inputs": [
        {
          "internalType": "uint256",
          "name": "_allocPoint",
          "type": "uint256"
        },
        {
          "internalType": "contract IBEP20",
          "name": "_lpToken",
          "type": "address"
        },
        {
          "internalType": "bool",
          "name": "_withUpdate",
          "type": "bool"
        }
      ],
      "name": "add",
      "outputs": [],
      "stateMutability": "nonpayable",
      "type": "function"
    },
    {
      "inputs": [
        {
          "internalType": "uint256",
          "name": "_pid",
          "type": "uint256"
        },
        {
          "internalType": "uint256",
          "name": "_amount",
          "type": "uint256"
        }
      ],
      "name": "deposit",
      "outputs": [],
      "stateMutability": "nonpayable",
      "type": "function"
    },
    {
      "inputs": [
        {
          "internalType": "address",
          "name": "_devaddr",
          "type": "address"
        }
      ],
      "name": "dev",
      "outputs": [],
      "stateMutability": "nonpayable",
      "type": "function"
    },
    {
      "inputs": [],
      "name": "devaddr",
      "outputs": [
        {
          "internalType": "address",
          "name": "",
          "type": "address"
        }
      ],
      "stateMutability": "view",
      "type": "function"
    },
    {
      "inputs": [
        {
          "internalType": "uint256",
          "name": "_pid",
          "type": "uint256"
        }
      ],
      "name": "emergencyWithdraw",
      "outputs": [],
      "stateMutability": "nonpayable",
      "type": "function"
    },
    {
      "inputs": [
        {
          "internalType": "uint256",
          "name": "_amount",
          "type": "uint256"
        }
      ],
      "name": "enterStaking",
      "outputs": [],
      "stateMutability": "nonpayable",
      "type": "function"
    },
    {
      "inputs": [
        {
          "internalType": "uint256",
          "name": "_from",
          "type": "uint256"
        },
        {
          "internalType": "uint256",
          "name": "_to",
          "type": "uint256"
        }
      ],
      "name": "getMultiplier",
      "outputs": [
        {
          "internalType": "uint256",
          "name": "",
          "type": "uint256"
        }
      ],
      "stateMutability": "view",
      "type": "function"
    },
    {
      "inputs": [
        {
          "internalType": "uint256",
          "name": "_amount",
          "type": "uint256"
        }
      ],
      "name": "leaveStaking",
      "outputs": [],
      "stateMutability": "nonpayable",
      "type": "function"
    },
    {
      "inputs": [],
      "name": "massUpdatePools",
      "outputs": [],
      "stateMutability": "nonpayable",
      "type": "function"
    },
    {
      "inputs": [
        {
          "internalType": "uint256",
          "name": "_pid",
          "type": "uint256"
        }
      ],
      "name": "migrate",
      "outputs": [],
      "stateMutability": "nonpayable",
      "type": "function"
    },
    {
      "inputs": [],
      "name": "migrator",
      "outputs": [
        {
          "internalType": "contract IMigratorChef",
          "name": "",
          "type": "address"
        }
      ],
      "stateMutability": "view",
      "type": "function"
    },
    {
      "inputs": [],
      "name": "owner",
      "outputs": [
        {
          "internalType": "address",
          "name": "",
          "type": "address"
        }
      ],
      "stateMutability": "view",
      "type": "function"
    },
    {
      "inputs": [
        {
          "internalType": "uint256",
          "name": "_pid",
          "type": "uint256"
        },
        {
          "internalType": "address",
          "name": "_user",
          "type": "address"
        }
      ],
      "name": "pendingReqt",
      "outputs": [
        {
          "internalType": "uint256",
          "name": "",
          "type": "uint256"
        }
      ],
      "stateMutability": "view",
      "type": "function"
    },
    {
      "inputs": [
        {
          "internalType": "uint256",
          "name": "",
          "type": "uint256"
        }
      ],
      "name": "poolInfo",
      "outputs": [
        {
          "internalType": "contract IBEP20",
          "name": "lpToken",
          "type": "address"
        },
        {
          "internalType": "uint256",
          "name": "allocPoint",
          "type": "uint256"
        },
        {
          "internalType": "uint256",
          "name": "lastRewardBlock",
          "type": "uint256"
        },
        {
          "internalType": "uint256",
          "name": "accReqtPerShare",
          "type": "uint256"
        }
      ],
      "stateMutability": "view",
      "type": "function"
    },
    {
      "inputs": [],
      "name": "poolLength",
      "outputs": [
        {
          "internalType": "uint256",
          "name": "",
          "type": "uint256"
        }
      ],
      "stateMutability": "view",
      "type": "function"
    },
    {
      "inputs": [],
      "name": "renounceOwnership",
      "outputs": [],
      "stateMutability": "nonpayable",
      "type": "function"
    },
    {
      "inputs": [],
      "name": "reqt",
      "outputs": [
        {
          "internalType": "contract RequiemToken",
          "name": "",
          "type": "address"
        }
      ],
      "stateMutability": "view",
      "type": "function"
    },
    {
      "inputs": [],
      "name": "reqtPerBlock",
      "outputs": [
        {
          "internalType": "uint256",
          "name": "",
          "type": "uint256"
        }
      ],
      "stateMutability": "view",
      "type": "function"
    },
    {
      "inputs": [
        {
          "internalType": "uint256",
          "name": "_pid",
          "type": "uint256"
        },
        {
          "internalType": "uint256",
          "name": "_allocPoint",
          "type": "uint256"
        },
        {
          "internalType": "bool",
          "name": "_withUpdate",
          "type": "bool"
        }
      ],
      "name": "set",
      "outputs": [],
      "stateMutability": "nonpayable",
      "type": "function"
    },
    {
      "inputs": [
        {
          "internalType": "contract IMigratorChef",
          "name": "_migrator",
          "type": "address"
        }
      ],
      "name": "setMigrator",
      "outputs": [],
      "stateMutability": "nonpayable",
      "type": "function"
    },
    {
      "inputs": [],
      "name": "startBlock",
      "outputs": [
        {
          "internalType": "uint256",
          "name": "",
          "type": "uint256"
        }
      ],
      "stateMutability": "view",
      "type": "function"
    },
    {
      "inputs": [],
      "name": "syrup",
      "outputs": [
        {
          "internalType": "contract SyrupBar",
          "name": "",
          "type": "address"
        }
      ],
      "stateMutability": "view",
      "type": "function"
    },
    {
      "inputs": [],
      "name": "totalAllocPoint",
      "outputs": [
        {
          "internalType": "uint256",
          "name": "",
          "type": "uint256"
        }
      ],
      "stateMutability": "view",
      "type": "function"
    },
    {
      "inputs": [
        {
          "internalType": "address",
          "name": "newOwner",
          "type": "address"
        }
      ],
      "name": "transferOwnership",
      "outputs": [],
      "stateMutability": "nonpayable",
      "type": "function"
    },
    {
      "inputs": [
        {
          "internalType": "uint256",
          "name": "multiplierNumber",
          "type": "uint256"
        }
      ],
      "name": "updateMultiplier",
      "outputs": [],
      "stateMutability": "nonpayable",
      "type": "function"
    },
    {
      "inputs": [
        {
          "internalType": "uint256",
          "name": "_pid",
          "type": "uint256"
        }
      ],
      "name": "updatePool",
      "outputs": [],
      "stateMutability": "nonpayable",
      "type": "function"
    },
    {
      "inputs": [
        {
          "internalType": "uint256",
          "name": "",
          "type": "uint256"
        },
        {
          "internalType": "address",
          "name": "",
          "type": "address"
        }
      ],
      "name": "userInfo",
      "outputs": [
        {
          "internalType": "uint256",
          "name": "amount",
          "type": "uint256"
        },
        {
          "internalType": "uint256",
          "name": "rewardDebt",
          "type": "uint256"
        }
      ],
      "stateMutability": "view",
      "type": "function"
    },
    {
      "inputs": [
        {
          "internalType": "uint256",
          "name": "_pid",
          "type": "uint256"
        },
        {
          "internalType": "uint256",
          "name": "_amount",
          "type": "uint256"
        }
      ],
      "name": "withdraw",
      "outputs": [],
      "stateMutability": "nonpayable",
      "type": "function"
    }
  ],
  "bytecode": "0x60806040526001600555600060095534801561001a57600080fd5b506040516122f73803806122f7833981810160405260a081101561003d57600080fd5b5080516020820151604083015160608401516080909401519293919290919060006100666101e0565b600080546001600160a01b0319166001600160a01b0383169081178255604051929350917f8be0079c531659141344cd1fd0a4f28419497f9722a3daafe3b4186f6b6457e0908290a350600180546001600160a01b03199081166001600160a01b03978816908117835560028054831697891697909717909655600380548216958816959095179094556004928355600a829055604080516080810182529586526103e86020870181815291870193845260006060880181815260078054958601815590915296517fa66cc928b5edb82af9bd49922954155ab7b0942694bea4ce44661d9a8736c688939095029283018054909616949097169390931790935590517fa66cc928b5edb82af9bd49922954155ab7b0942694bea4ce44661d9a8736c689830155517fa66cc928b5edb82af9bd49922954155ab7b0942694bea4ce44661d9a8736c68a82015590517fa66cc928b5edb82af9bd49922954155ab7b0942694bea4ce44661d9a8736c68b909101556009556101e4565b3390565b612104806101f36000396000f3fe608060405234801561001057600080fd5b50600436106101cf5760003560e01c8063630b5ba1116101045780638d88a90e116100a2578063d49e77cd11610071578063d49e77cd146104b1578063e2bbb158146104b9578063f2f639c6146104dc578063f2fde38b146104e4576101cf565b80638d88a90e1461041b5780638da5cb5b146104415780638dbb1e3a1461044957806393f1a40b1461046c576101cf565b8063715018a6116100de578063715018a6146103fb5780637cd07e471461040357806386a952c41461040b5780638aa2855014610413576101cf565b8063630b5ba1146103a457806364482f79146103ac5780636a4f0f4b146103d7576101cf565b806341441d3b1161017157806348cd4cb11161014b57806348cd4cb11461034557806351eb05a61461034d5780635312ea8e1461036a5780635ffe614614610387576101cf565b806341441d3b146102e8578063441a3e7014610305578063454b060814610328576101cf565b80631526fe27116101ad5780631526fe271461023957806317caf6f1146102865780631eaaa0451461028e57806323cf3118146102c2576101cf565b8063056d7915146101d4578063081e3eda146102125780631058d2811461021a575b600080fd5b610200600480360360408110156101ea57600080fd5b50803590602001356001600160a01b031661050a565b60408051918252519081900360200190f35b610200610680565b6102376004803603602081101561023057600080fd5b5035610686565b005b6102566004803603602081101561024f57600080fd5b503561085e565b604080516001600160a01b0390951685526020850193909352838301919091526060830152519081900360800190f35b61020061089f565b610237600480360360608110156102a457600080fd5b508035906001600160a01b03602082013516906040013515156108a5565b610237600480360360208110156102d857600080fd5b50356001600160a01b0316610a2b565b610237600480360360208110156102fe57600080fd5b5035610aa5565b6102376004803603604081101561031b57600080fd5b5080359060200135610c39565b6102376004803603602081101561033e57600080fd5b5035610dde565b61020061103a565b6102376004803603602081101561036357600080fd5b5035611040565b6102376004803603602081101561038057600080fd5b5035611266565b6102376004803603602081101561039d57600080fd5b5035611301565b61023761135e565b610237600480360360608110156103c257600080fd5b50803590602081013590604001351515611381565b6103df61145e565b604080516001600160a01b039092168252519081900360200190f35b61023761146d565b6103df61150f565b6103df61151e565b61020061152d565b6102376004803603602081101561043157600080fd5b50356001600160a01b0316611533565b6103df6115a0565b6102006004803603604081101561045f57600080fd5b50803590602001356115af565b6104986004803603604081101561048257600080fd5b50803590602001356001600160a01b03166115ca565b6040805192835260208301919091528051918290030190f35b6103df6115ee565b610237600480360360408110156104cf57600080fd5b50803590602001356115fd565b610200611761565b610237600480360360208110156104fa57600080fd5b50356001600160a01b0316611767565b6000806007848154811061051a57fe5b600091825260208083208784526008825260408085206001600160a01b03898116875290845281862060049586029093016003810154815484516370a0823160e01b81523098810198909852935191985093969395939492909116926370a08231926024808301939192829003018186803b15801561059857600080fd5b505afa1580156105ac573d6000803e3d6000fd5b505050506040513d60208110156105c257600080fd5b50516002850154909150431180156105d957508015155b156106455760006105ee8560020154436115af565b9050600061062160095461061b8860010154610615600454876117c890919063ffffffff16565b906117c8565b90611821565b90506106406106398461061b8464e8d4a510006117c8565b8590611863565b935050505b610673836001015461066d64e8d4a5100061061b8688600001546117c890919063ffffffff16565b906118bd565b9450505050505b92915050565b60075490565b6000600760008154811061069657fe5b600091825260208083203384527f5eff886ea0ce6ca488a3d6e336d6c0f75f46d19b42c06ce5ee98e42c96d256c79091526040909220805460049092029092019250831115610721576040805162461bcd60e51b81526020600482015260126024820152711dda5d1a191c985dce881b9bdd0819dbdbd960721b604482015290519081900360640190fd5b61072b6000611040565b6000610759826001015461066d64e8d4a5100061061b876003015487600001546117c890919063ffffffff16565b9050801561076b5761076b33826118ff565b831561079557815461077d90856118bd565b82558254610795906001600160a01b03163386611970565b600383015482546107b09164e8d4a510009161061b916117c8565b600183015560025460408051632770a7eb60e21b81523360048201526024810187905290516001600160a01b0390921691639dc29fac9160448082019260009290919082900301818387803b15801561080857600080fd5b505af115801561081c573d6000803e3d6000fd5b5050604080518781529051600093503392507ff279e6a1f5e320cca91135676d9cb6e44ca8a08c0b88342bcdb1144f6511b5689181900360200190a350505050565b6007818154811061086b57fe5b600091825260209091206004909102018054600182015460028301546003909301546001600160a01b039092169350919084565b60095481565b6108ad6119c7565b6000546001600160a01b039081169116146108fd576040805162461bcd60e51b815260206004820181905260248201526000805160206120af833981519152604482015290519081900360640190fd5b801561090b5761090b61135e565b6000600a54431161091e57600a54610920565b435b6009549091506109309085611863565b600955604080516080810182526001600160a01b0385811682526020820187815292820184815260006060840181815260078054600181018255925293517fa66cc928b5edb82af9bd49922954155ab7b0942694bea4ce44661d9a8736c688600490920291820180546001600160a01b031916919094161790925592517fa66cc928b5edb82af9bd49922954155ab7b0942694bea4ce44661d9a8736c68982015591517fa66cc928b5edb82af9bd49922954155ab7b0942694bea4ce44661d9a8736c68a830155517fa66cc928b5edb82af9bd49922954155ab7b0942694bea4ce44661d9a8736c68b90910155610a256119cb565b50505050565b610a336119c7565b6000546001600160a01b03908116911614610a83576040805162461bcd60e51b815260206004820181905260248201526000805160206120af833981519152604482015290519081900360640190fd5b600680546001600160a01b0319166001600160a01b0392909216919091179055565b60006007600081548110610ab557fe5b600091825260208083203384527f5eff886ea0ce6ca488a3d6e336d6c0f75f46d19b42c06ce5ee98e42c96d256c790915260408320600490920201925090610afc90611040565b805415610b45576000610b31826001015461066d64e8d4a5100061061b876003015487600001546117c890919063ffffffff16565b90508015610b4357610b4333826118ff565b505b8215610b71578154610b62906001600160a01b0316333086611a90565b8054610b6e9084611863565b81555b60038201548154610b8c9164e8d4a510009161061b916117c8565b6001820155600254604080516340c10f1960e01b81523360048201526024810186905290516001600160a01b03909216916340c10f199160448082019260009290919082900301818387803b158015610be457600080fd5b505af1158015610bf8573d6000803e3d6000fd5b5050604080518681529051600093503392507f90890809c654f11d6e72a28fa60149770a0d11ec6c92319d6ceb2bb0a4ea1a159181900360200190a3505050565b81610c8b576040805162461bcd60e51b815260206004820152601a60248201527f7769746864726177207265717420627920756e7374616b696e67000000000000604482015290519081900360640190fd5b600060078381548110610c9a57fe5b600091825260208083208684526008825260408085203386529092529220805460049092029092019250831115610d0d576040805162461bcd60e51b81526020600482015260126024820152711dda5d1a191c985dce881b9bdd0819dbdbd960721b604482015290519081900360640190fd5b610d1684611040565b6000610d44826001015461066d64e8d4a5100061061b876003015487600001546117c890919063ffffffff16565b90508015610d5657610d5633826118ff565b8315610d80578154610d6890856118bd565b82558254610d80906001600160a01b03163386611970565b60038301548254610d9b9164e8d4a510009161061b916117c8565b6001830155604080518581529051869133917ff279e6a1f5e320cca91135676d9cb6e44ca8a08c0b88342bcdb1144f6511b5689181900360200190a35050505050565b6006546001600160a01b0316610e32576040805162461bcd60e51b815260206004820152601460248201527336b4b3b930ba329d1037379036b4b3b930ba37b960611b604482015290519081900360640190fd5b600060078281548110610e4157fe5b600091825260208083206004928302018054604080516370a0823160e01b81523095810195909552519195506001600160a01b0316939284926370a0823192602480840193829003018186803b158015610e9a57600080fd5b505afa158015610eae573d6000803e3d6000fd5b505050506040513d6020811015610ec457600080fd5b5051600654909150610ee3906001600160a01b03848116911683611aea565b6006546040805163ce5494bb60e01b81526001600160a01b0385811660048301529151600093929092169163ce5494bb9160248082019260209290919082900301818787803b158015610f3557600080fd5b505af1158015610f49573d6000803e3d6000fd5b505050506040513d6020811015610f5f57600080fd5b5051604080516370a0823160e01b815230600482015290519192506001600160a01b038316916370a0823191602480820192602092909190829003018186803b158015610fab57600080fd5b505afa158015610fbf573d6000803e3d6000fd5b505050506040513d6020811015610fd557600080fd5b50518214611019576040805162461bcd60e51b815260206004820152600c60248201526b1b5a59dc985d194e8818985960a21b604482015290519081900360640190fd5b83546001600160a01b0319166001600160a01b039190911617909255505050565b600a5481565b60006007828154811061104f57fe5b90600052602060002090600402019050806002015443116110705750611263565b8054604080516370a0823160e01b815230600482015290516000926001600160a01b0316916370a08231916024808301926020929190829003018186803b1580156110ba57600080fd5b505afa1580156110ce573d6000803e3d6000fd5b505050506040513d60208110156110e457600080fd5b50519050806110fa575043600290910155611263565b600061110a8360020154436115af565b9050600061113160095461061b8660010154610615600454876117c890919063ffffffff16565b6001546003549192506001600160a01b03908116916340c10f19911661115884600a611821565b6040518363ffffffff1660e01b815260040180836001600160a01b0316815260200182815260200192505050600060405180830381600087803b15801561119e57600080fd5b505af11580156111b2573d6000803e3d6000fd5b5050600154600254604080516340c10f1960e01b81526001600160a01b0392831660048201526024810187905290519190921693506340c10f199250604480830192600092919082900301818387803b15801561120e57600080fd5b505af1158015611222573d6000803e3d6000fd5b505050506112506112458461061b64e8d4a51000856117c890919063ffffffff16565b600386015490611863565b6003850155505043600290920191909155505b50565b60006007828154811061127557fe5b600091825260208083208584526008825260408085203380875293529093208054600490930290930180549094506112ba926001600160a01b03919091169190611970565b80546040805191825251849133917fbb757047c2b5f3974fe26b7c10f732e7bce710b0952a71082702781e62ae05959181900360200190a360008082556001909101555050565b6113096119c7565b6000546001600160a01b03908116911614611359576040805162461bcd60e51b815260206004820181905260248201526000805160206120af833981519152604482015290519081900360640190fd5b600555565b60075460005b8181101561137d5761137581611040565b600101611364565b5050565b6113896119c7565b6000546001600160a01b039081169116146113d9576040805162461bcd60e51b815260206004820181905260248201526000805160206120af833981519152604482015290519081900360640190fd5b80156113e7576113e761135e565b6000600784815481106113f657fe5b9060005260206000209060040201600101549050826007858154811061141857fe5b906000526020600020906004020160010181905550828114610a25576114538361144d836009546118bd90919063ffffffff16565b90611863565b600955610a256119cb565b6001546001600160a01b031681565b6114756119c7565b6000546001600160a01b039081169116146114c5576040805162461bcd60e51b815260206004820181905260248201526000805160206120af833981519152604482015290519081900360640190fd5b600080546040516001600160a01b03909116907f8be0079c531659141344cd1fd0a4f28419497f9722a3daafe3b4186f6b6457e0908390a3600080546001600160a01b0319169055565b6006546001600160a01b031681565b6002546001600160a01b031681565b60055481565b6003546001600160a01b0316331461157e576040805162461bcd60e51b81526020600482015260096024820152686465763a207775743f60b81b604482015290519081900360640190fd5b600380546001600160a01b0319166001600160a01b0392909216919091179055565b6000546001600160a01b031690565b6005546000906115c39061061584866118bd565b9392505050565b60086020908152600092835260408084209091529082529020805460019091015482565b6003546001600160a01b031681565b8161164f576040805162461bcd60e51b815260206004820152601760248201527f6465706f7369742072657174206279207374616b696e67000000000000000000604482015290519081900360640190fd5b60006007838154811061165e57fe5b6000918252602080832086845260088252604080852033865290925292206004909102909101915061168f84611040565b8054156116d85760006116c4826001015461066d64e8d4a5100061061b876003015487600001546117c890919063ffffffff16565b905080156116d6576116d633826118ff565b505b82156117045781546116f5906001600160a01b0316333086611a90565b80546117019084611863565b81555b6003820154815461171f9164e8d4a510009161061b916117c8565b6001820155604080518481529051859133917f90890809c654f11d6e72a28fa60149770a0d11ec6c92319d6ceb2bb0a4ea1a159181900360200190a350505050565b60045481565b61176f6119c7565b6000546001600160a01b039081169116146117bf576040805162461bcd60e51b815260206004820181905260248201526000805160206120af833981519152604482015290519081900360640190fd5b61126381611bfd565b6000826117d75750600061067a565b828202828482816117e457fe5b04146115c35760405162461bcd60e51b81526004018080602001828103825260218152602001806120586021913960400191505060405180910390fd5b60006115c383836040518060400160405280601a81526020017f536166654d6174683a206469766973696f6e206279207a65726f000000000000815250611c9d565b6000828201838110156115c3576040805162461bcd60e51b815260206004820152601b60248201527f536166654d6174683a206164646974696f6e206f766572666c6f770000000000604482015290519081900360640190fd5b60006115c383836040518060400160405280601e81526020017f536166654d6174683a207375627472616374696f6e206f766572666c6f770000815250611d3f565b60025460408051632fad1c3560e21b81526001600160a01b038581166004830152602482018590529151919092169163beb470d491604480830192600092919082900301818387803b15801561195457600080fd5b505af1158015611968573d6000803e3d6000fd5b505050505050565b604080516001600160a01b038416602482015260448082018490528251808303909101815260649091019091526020810180516001600160e01b031663a9059cbb60e01b1790526119c2908490611d99565b505050565b3390565b600754600060015b82811015611a1657611a0c600782815481106119eb57fe5b9060005260206000209060040201600101548361186390919063ffffffff16565b91506001016119d3565b50801561137d57611a28816003611821565b9050611a628161144d6007600081548110611a3f57fe5b9060005260206000209060040201600101546009546118bd90919063ffffffff16565b600981905550806007600081548110611a7757fe5b9060005260206000209060040201600101819055505050565b604080516001600160a01b0380861660248301528416604482015260648082018490528251808303909101815260849091019091526020810180516001600160e01b03166323b872dd60e01b179052610a25908590611d99565b801580611b70575060408051636eb1769f60e11b81523060048201526001600160a01b03848116602483015291519185169163dd62ed3e91604480820192602092909190829003018186803b158015611b4257600080fd5b505afa158015611b56573d6000803e3d6000fd5b505050506040513d6020811015611b6c57600080fd5b5051155b611bab5760405162461bcd60e51b81526004018080602001828103825260368152602001806120796036913960400191505060405180910390fd5b604080516001600160a01b038416602482015260448082018490528251808303909101815260649091019091526020810180516001600160e01b031663095ea7b360e01b1790526119c2908490611d99565b6001600160a01b038116611c425760405162461bcd60e51b81526004018080602001828103825260268152602001806120326026913960400191505060405180910390fd5b600080546040516001600160a01b03808516939216917f8be0079c531659141344cd1fd0a4f28419497f9722a3daafe3b4186f6b6457e091a3600080546001600160a01b0319166001600160a01b0392909216919091179055565b60008183611d295760405162461bcd60e51b81526004018080602001828103825283818151815260200191508051906020019080838360005b83811015611cee578181015183820152602001611cd6565b50505050905090810190601f168015611d1b5780820380516001836020036101000a031916815260200191505b509250505060405180910390fd5b506000838581611d3557fe5b0495945050505050565b60008184841115611d915760405162461bcd60e51b8152602060048201818152835160248401528351909283926044909101919085019080838360008315611cee578181015183820152602001611cd6565b505050900390565b6060611dee826040518060400160405280602081526020017f5361666542455032303a206c6f772d6c6576656c2063616c6c206661696c6564815250856001600160a01b0316611e4a9092919063ffffffff16565b8051909150156119c257808060200190516020811015611e0d57600080fd5b50516119c25760405162461bcd60e51b815260040180806020018281038252602a815260200180612008602a913960400191505060405180910390fd5b6060611e598484600085611e61565b949350505050565b6060611e6c85611fce565b611ebd576040805162461bcd60e51b815260206004820152601d60248201527f416464726573733a2063616c6c20746f206e6f6e2d636f6e7472616374000000604482015290519081900360640190fd5b60006060866001600160a01b031685876040518082805190602001908083835b60208310611efc5780518252601f199092019160209182019101611edd565b6001836020036101000a03801982511681845116808217855250505050505090500191505060006040518083038185875af1925050503d8060008114611f5e576040519150601f19603f3d011682016040523d82523d6000602084013e611f63565b606091505b50915091508115611f77579150611e599050565b805115611f875780518082602001fd5b60405162461bcd60e51b8152602060048201818152865160248401528651879391928392604401919085019080838360008315611cee578181015183820152602001611cd6565b6000813f7fc5d2460186f7233c927e7db2dcc703c0e500b653ca82273b7bfad8045d85a470818114801590611e5957505015159291505056fe5361666542455032303a204245503230206f7065726174696f6e20646964206e6f7420737563636565644f776e61626c653a206e6577206f776e657220697320746865207a65726f2061646472657373536166654d6174683a206d756c7469706c69636174696f6e206f766572666c6f775361666542455032303a20617070726f76652066726f6d206e6f6e2d7a65726f20746f206e6f6e2d7a65726f20616c6c6f77616e63654f776e61626c653a2063616c6c6572206973206e6f7420746865206f776e6572a2646970667358221220d2d918998aeaa39bedc4c29b0e54f78fe60069ff39ce78583dffd0e78675d1f364736f6c634300060c0033",
  "linkReferences": {},
  "deployedLinkReferences": {}
}